{
  "contractName": "FreightManager",
  "abi": [
    {
      "inputs": [],
      "stateMutability": "nonpayable",
      "type": "constructor"
    },
    {
      "inputs": [],
      "name": "nextTripId",
      "outputs": [
        {
          "internalType": "uint256",
          "name": "",
          "type": "uint256"
        }
      ],
      "stateMutability": "view",
      "type": "function",
      "constant": true
    },
    {
      "inputs": [],
      "name": "nextVehicleId",
      "outputs": [
        {
          "internalType": "uint256",
          "name": "",
          "type": "uint256"
        }
      ],
      "stateMutability": "view",
      "type": "function",
      "constant": true
    },
    {
      "inputs": [],
      "name": "owner",
      "outputs": [
        {
          "internalType": "address",
          "name": "",
          "type": "address"
        }
      ],
      "stateMutability": "view",
      "type": "function",
      "constant": true
    },
    {
      "inputs": [
        {
          "internalType": "uint256",
          "name": "",
          "type": "uint256"
        }
      ],
      "name": "trips",
      "outputs": [
        {
          "internalType": "uint256",
          "name": "id",
          "type": "uint256"
        },
        {
          "internalType": "string",
          "name": "origin",
          "type": "string"
        },
        {
          "internalType": "string",
          "name": "destination",
          "type": "string"
        },
        {
          "internalType": "uint256",
          "name": "cargoWeight",
          "type": "uint256"
        },
        {
          "internalType": "uint256",
          "name": "vehicleId",
          "type": "uint256"
        },
        {
          "internalType": "address",
          "name": "user",
          "type": "address"
        },
        {
          "internalType": "uint256",
          "name": "escrowAmount",
          "type": "uint256"
        },
        {
          "internalType": "enum FreightManager.DeliveryState",
          "name": "deliveryState",
          "type": "uint8"
        },
        {
          "internalType": "string",
          "name": "ipfsHash",
          "type": "string"
        }
      ],
      "stateMutability": "view",
      "type": "function",
      "constant": true
    },
    {
      "inputs": [
        {
          "internalType": "uint256",
          "name": "",
          "type": "uint256"
        }
      ],
      "name": "vehicles",
      "outputs": [
        {
          "internalType": "uint256",
          "name": "id",
          "type": "uint256"
        },
        {
          "internalType": "uint256",
          "name": "capacity",
          "type": "uint256"
        },
        {
          "internalType": "enum FreightManager.DeliveryState",
          "name": "state",
          "type": "uint8"
        }
      ],
      "stateMutability": "view",
      "type": "function",
      "constant": true
    },
    {
      "inputs": [
        {
          "internalType": "uint256",
          "name": "_capacity",
          "type": "uint256"
        }
      ],
      "name": "registerVehicle",
      "outputs": [],
      "stateMutability": "nonpayable",
      "type": "function"
    },
    {
      "inputs": [
        {
          "internalType": "string",
          "name": "_origin",
          "type": "string"
        },
        {
          "internalType": "string",
          "name": "_destination",
          "type": "string"
        },
        {
          "internalType": "uint256",
          "name": "_cargoWeight",
          "type": "uint256"
        }
      ],
      "name": "scheduleForwardTrip",
      "outputs": [],
      "stateMutability": "payable",
      "type": "function",
      "payable": true
    },
    {
      "inputs": [
        {
          "internalType": "uint256",
          "name": "_tripId",
          "type": "uint256"
        },
        {
          "internalType": "uint256",
          "name": "_vehicleId",
          "type": "uint256"
        }
      ],
      "name": "assignVehicleToForwardTrip",
      "outputs": [],
      "stateMutability": "nonpayable",
      "type": "function"
    },
    {
      "inputs": [
        {
          "internalType": "uint256",
          "name": "_tripId",
          "type": "uint256"
        }
      ],
      "name": "markForwardTripDelivered",
      "outputs": [],
      "stateMutability": "nonpayable",
      "type": "function"
    },
    {
      "inputs": [
        {
          "internalType": "uint256",
          "name": "_vehicleId",
          "type": "uint256"
        },
        {
          "internalType": "string",
          "name": "_origin",
          "type": "string"
        },
        {
          "internalType": "string",
          "name": "_destination",
          "type": "string"
        },
        {
          "internalType": "uint256",
          "name": "_cargoWeight",
          "type": "uint256"
        }
      ],
      "name": "scheduleReverseTrip",
      "outputs": [],
      "stateMutability": "payable",
      "type": "function",
      "payable": true
    },
    {
      "inputs": [
        {
          "internalType": "uint256",
          "name": "_tripId",
          "type": "uint256"
        },
        {
          "internalType": "uint256",
          "name": "_vehicleId",
          "type": "uint256"
        }
      ],
      "name": "assignVehicleToReverseTrip",
      "outputs": [],
      "stateMutability": "nonpayable",
      "type": "function"
    },
    {
      "inputs": [
        {
          "internalType": "uint256",
          "name": "_tripId",
          "type": "uint256"
        },
        {
          "internalType": "string",
          "name": "_ipfsHash",
          "type": "string"
        }
      ],
      "name": "markReverseTripDelivered",
      "outputs": [],
      "stateMutability": "nonpayable",
      "type": "function"
    }
  ],
  "bytecode": "0x60806040526001600355600160045534801561001a57600080fd5b50336000806101000a81548173ffffffffffffffffffffffffffffffffffffffff021916908373ffffffffffffffffffffffffffffffffffffffff1602179055506123a48061006a6000396000f3fe6080604052600436106100a75760003560e01c80638da5cb5b116100645780638da5cb5b1461018c578063b8ba95fa146101b7578063cd4efcef146101f6578063cdd30c2f1461021f578063e382213d14610248578063f6824a7c14610271576100a7565b80631d8a62de146100ac5780633d5e5a7d146100c85780634acdca9f146100e457806353fa7bda1461010f5780638921a346146101385780638c99679314610163575b600080fd5b6100c660048036038101906100c191906118e4565b6102b6565b005b6100e260048036038101906100dd9190611983565b6105b9565b005b3480156100f057600080fd5b506100f96107a3565b6040516101069190611a1d565b60405180910390f35b34801561011b57600080fd5b5061013660048036038101906101319190611a38565b6107a9565b005b34801561014457600080fd5b5061014d610a88565b60405161015a9190611a1d565b60405180910390f35b34801561016f57600080fd5b5061018a60048036038101906101859190611a78565b610a8e565b005b34801561019857600080fd5b506101a1610c8d565b6040516101ae9190611ae6565b60405180910390f35b3480156101c357600080fd5b506101de60048036038101906101d99190611a78565b610cb1565b6040516101ed93929190611b78565b60405180910390f35b34801561020257600080fd5b5061021d60048036038101906102189190611a38565b610ce8565b005b34801561022b57600080fd5b5061024660048036038101906102419190611a78565b611002565b005b34801561025457600080fd5b5061026f600480360381019061026a9190611baf565b6111a3565b005b34801561027d57600080fd5b5061029860048036038101906102939190611a78565b611451565b6040516102ad99989796959493929190611c93565b60405180910390f35b6000841180156102c7575060035484105b610306576040517f08c379a00000000000000000000000000000000000000000000000000000000081526004016102fd90611d81565b60405180910390fd5b6003600681111561031a57610319611b01565b5b6001600086815260200190815260200160002060020160009054906101000a900460ff1660068111156103505761034f611b01565b5b14610390576040517f08c379a000000000000000000000000000000000000000000000000000000000815260040161038790611e13565b60405180910390fd5b600034116103d3576040517f08c379a00000000000000000000000000000000000000000000000000000000081526004016103ca90611e7f565b60405180910390fd5b60405180610120016040528060045481526020018481526020018381526020018281526020018581526020013373ffffffffffffffffffffffffffffffffffffffff1681526020013481526020016004600681111561043557610434611b01565b5b815260200160405180602001604052806000815250815250600260006004548152602001908152602001600020600082015181600001556020820151816001019080519060200190610488929190611664565b5060408201518160020190805190602001906104a5929190611664565b50606082015181600301556080820151816004015560a08201518160050160006101000a81548173ffffffffffffffffffffffffffffffffffffffff021916908373ffffffffffffffffffffffffffffffffffffffff16021790555060c0820151816006015560e08201518160070160006101000a81548160ff0219169083600681111561053657610535611b01565b5b0217905550610100820151816008019080519060200190610558929190611664565b50905050600160008581526020019081526020016000206003016004549080600181540180825580915050600190039060005260206000200160009091909190915055600460008154809291906105ae90611ece565b919050555050505050565b600034116105fc576040517f08c379a00000000000000000000000000000000000000000000000000000000081526004016105f390611e7f565b60405180910390fd5b6040518061012001604052806004548152602001848152602001838152602001828152602001600081526020013373ffffffffffffffffffffffffffffffffffffffff1681526020013481526020016001600681111561065f5761065e611b01565b5b8152602001604051806020016040528060008152508152506002600060045481526020019081526020016000206000820151816000015560208201518160010190805190602001906106b2929190611664565b5060408201518160020190805190602001906106cf929190611664565b50606082015181600301556080820151816004015560a08201518160050160006101000a81548173ffffffffffffffffffffffffffffffffffffffff021916908373ffffffffffffffffffffffffffffffffffffffff16021790555060c0820151816006015560e08201518160070160006101000a81548160ff021916908360068111156107605761075f611b01565b5b0217905550610100820151816008019080519060200190610782929190611664565b509050506004600081548092919061079990611ece565b9190505550505050565b60035481565b60008054906101000a900473ffffffffffffffffffffffffffffffffffffffff1673ffffffffffffffffffffffffffffffffffffffff163373ffffffffffffffffffffffffffffffffffffffff1614610837576040517f08c379a000000000000000000000000000000000000000000000000000000000815260040161082e90611f88565b60405180910390fd5b600082118015610848575060045482105b610887576040517f08c379a000000000000000000000000000000000000000000000000000000000815260040161087e90611ff4565b60405180910390fd5b600081118015610898575060035481105b6108d7576040517f08c379a00000000000000000000000000000000000000000000000000000000081526004016108ce90611d81565b60405180910390fd5b600460068111156108eb576108ea611b01565b5b6002600084815260200190815260200160002060070160009054906101000a900460ff16600681111561092157610920611b01565b5b14610961576040517f08c379a000000000000000000000000000000000000000000000000000000000815260040161095890612086565b60405180910390fd5b6003600681111561097557610974611b01565b5b6001600083815260200190815260200160002060020160009054906101000a900460ff1660068111156109ab576109aa611b01565b5b146109eb576040517f08c379a00000000000000000000000000000000000000000000000000000000081526004016109e290612118565b60405180910390fd5b80600260008481526020019081526020016000206004018190555060056002600084815260200190815260200160002060070160006101000a81548160ff02191690836006811115610a4057610a3f611b01565b5b021790555060056001600083815260200190815260200160002060020160006101000a81548160ff02191690836006811115610a7f57610a7e611b01565b5b02179055505050565b60045481565b60008054906101000a900473ffffffffffffffffffffffffffffffffffffffff1673ffffffffffffffffffffffffffffffffffffffff163373ffffffffffffffffffffffffffffffffffffffff1614610b1c576040517f08c379a0000000000000000000000000000000000000000000000000000000008152600401610b1390611f88565b60405180910390fd5b600081118015610b2d575060045481105b610b6c576040517f08c379a0000000000000000000000000000000000000000000000000000000008152600401610b6390611ff4565b60405180910390fd5b60026006811115610b8057610b7f611b01565b5b6002600083815260200190815260200160002060070160009054906101000a900460ff166006811115610bb657610bb5611b01565b5b14610bf6576040517f08c379a0000000000000000000000000000000000000000000000000000000008152600401610bed90612184565b60405180910390fd5b60036002600083815260200190815260200160002060070160006101000a81548160ff02191690836006811115610c3057610c2f611b01565b5b02179055506003600160006002600085815260200190815260200160002060040154815260200190815260200160002060020160006101000a81548160ff02191690836006811115610c8557610c84611b01565b5b021790555050565b60008054906101000a900473ffffffffffffffffffffffffffffffffffffffff1681565b60016020528060005260406000206000915090508060000154908060010154908060020160009054906101000a900460ff16905083565b60008054906101000a900473ffffffffffffffffffffffffffffffffffffffff1673ffffffffffffffffffffffffffffffffffffffff163373ffffffffffffffffffffffffffffffffffffffff1614610d76576040517f08c379a0000000000000000000000000000000000000000000000000000000008152600401610d6d90611f88565b60405180910390fd5b600082118015610d87575060045482105b610dc6576040517f08c379a0000000000000000000000000000000000000000000000000000000008152600401610dbd90611ff4565b60405180910390fd5b600081118015610dd7575060035481105b610e16576040517f08c379a0000000000000000000000000000000000000000000000000000000008152600401610e0d90611d81565b60405180910390fd5b60016006811115610e2a57610e29611b01565b5b6002600084815260200190815260200160002060070160009054906101000a900460ff166006811115610e6057610e5f611b01565b5b14610ea0576040517f08c379a0000000000000000000000000000000000000000000000000000000008152600401610e97906121f0565b60405180910390fd5b60006006811115610eb457610eb3611b01565b5b6001600083815260200190815260200160002060020160009054906101000a900460ff166006811115610eea57610ee9611b01565b5b14610f2a576040517f08c379a0000000000000000000000000000000000000000000000000000000008152600401610f219061225c565b60405180910390fd5b806002600084815260200190815260200160002060040181905550600280600084815260200190815260200160002060070160006101000a81548160ff02191690836006811115610f7e57610f7d611b01565b5b0217905550600180600083815260200190815260200160002060020160006101000a81548160ff02191690836006811115610fbc57610fbb611b01565b5b0217905550600160008281526020019081526020016000206003018290806001815401808255809150506001900390600052602060002001600090919091909150555050565b60008054906101000a900473ffffffffffffffffffffffffffffffffffffffff1673ffffffffffffffffffffffffffffffffffffffff163373ffffffffffffffffffffffffffffffffffffffff1614611090576040517f08c379a000000000000000000000000000000000000000000000000000000000815260040161108790611f88565b60405180910390fd5b60405180608001604052806003548152602001828152602001600060068111156110bd576110bc611b01565b5b8152602001600067ffffffffffffffff8111156110dd576110dc6117b9565b5b60405190808252806020026020018201604052801561110b5781602001602082028036833780820191505090505b50815250600160006003548152602001908152602001600020600082015181600001556020820151816001015560408201518160020160006101000a81548160ff0219169083600681111561116357611162611b01565b5b021790555060608201518160030190805190602001906111849291906116ea565b509050506003600081548092919061119b90611ece565b919050555050565b60008054906101000a900473ffffffffffffffffffffffffffffffffffffffff1673ffffffffffffffffffffffffffffffffffffffff163373ffffffffffffffffffffffffffffffffffffffff1614611231576040517f08c379a000000000000000000000000000000000000000000000000000000000815260040161122890611f88565b60405180910390fd5b600082118015611242575060045482105b611281576040517f08c379a000000000000000000000000000000000000000000000000000000000815260040161127890611ff4565b60405180910390fd5b6005600681111561129557611294611b01565b5b6002600084815260200190815260200160002060070160009054906101000a900460ff1660068111156112cb576112ca611b01565b5b1461130b576040517f08c379a0000000000000000000000000000000000000000000000000000000008152600401611302906122ee565b60405180910390fd5b60066002600084815260200190815260200160002060070160006101000a81548160ff0219169083600681111561134557611344611b01565b5b021790555080600260008481526020019081526020016000206008019080519060200190611374929190611664565b5060006002600084815260200190815260200160002060040154905060006001600083815260200190815260200160002060020160006101000a81548160ff021916908360068111156113ca576113c9611b01565b5b021790555060008054906101000a900473ffffffffffffffffffffffffffffffffffffffff1673ffffffffffffffffffffffffffffffffffffffff166108fc60026000868152602001908152602001600020600601549081150290604051600060405180830381858888f1935050505015801561144b573d6000803e3d6000fd5b50505050565b600260205280600052604060002060009150905080600001549080600101805461147a9061233d565b80601f01602080910402602001604051908101604052809291908181526020018280546114a69061233d565b80156114f35780601f106114c8576101008083540402835291602001916114f3565b820191906000526020600020905b8154815290600101906020018083116114d657829003601f168201915b5050505050908060020180546115089061233d565b80601f01602080910402602001604051908101604052809291908181526020018280546115349061233d565b80156115815780601f1061155657610100808354040283529160200191611581565b820191906000526020600020905b81548152906001019060200180831161156457829003601f168201915b5050505050908060030154908060040154908060050160009054906101000a900473ffffffffffffffffffffffffffffffffffffffff16908060060154908060070160009054906101000a900460ff16908060080180546115e19061233d565b80601f016020809104026020016040519081016040528092919081815260200182805461160d9061233d565b801561165a5780601f1061162f5761010080835404028352916020019161165a565b820191906000526020600020905b81548152906001019060200180831161163d57829003601f168201915b5050505050905089565b8280546116709061233d565b90600052602060002090601f01602090048101928261169257600085556116d9565b82601f106116ab57805160ff19168380011785556116d9565b828001600101855582156116d9579182015b828111156116d85782518255916020019190600101906116bd565b5b5090506116e69190611737565b5090565b828054828255906000526020600020908101928215611726579160200282015b8281111561172557825182559160200191906001019061170a565b5b5090506117339190611737565b5090565b5b80821115611750576000816000905550600101611738565b5090565b6000604051905090565b600080fd5b600080fd5b6000819050919050565b61177b81611768565b811461178657600080fd5b50565b60008135905061179881611772565b92915050565b600080fd5b600080fd5b6000601f19601f8301169050919050565b7f4e487b7100000000000000000000000000000000000000000000000000000000600052604160045260246000fd5b6117f1826117a8565b810181811067ffffffffffffffff821117156118105761180f6117b9565b5b80604052505050565b6000611823611754565b905061182f82826117e8565b919050565b600067ffffffffffffffff82111561184f5761184e6117b9565b5b611858826117a8565b9050602081019050919050565b82818337600083830152505050565b600061188761188284611834565b611819565b9050828152602081018484840111156118a3576118a26117a3565b5b6118ae848285611865565b509392505050565b600082601f8301126118cb576118ca61179e565b5b81356118db848260208601611874565b91505092915050565b600080600080608085870312156118fe576118fd61175e565b5b600061190c87828801611789565b945050602085013567ffffffffffffffff81111561192d5761192c611763565b5b611939878288016118b6565b935050604085013567ffffffffffffffff81111561195a57611959611763565b5b611966878288016118b6565b925050606061197787828801611789565b91505092959194509250565b60008060006060848603121561199c5761199b61175e565b5b600084013567ffffffffffffffff8111156119ba576119b9611763565b5b6119c6868287016118b6565b935050602084013567ffffffffffffffff8111156119e7576119e6611763565b5b6119f3868287016118b6565b9250506040611a0486828701611789565b9150509250925092565b611a1781611768565b82525050565b6000602082019050611a326000830184611a0e565b92915050565b60008060408385031215611a4f57611a4e61175e565b5b6000611a5d85828601611789565b9250506020611a6e85828601611789565b9150509250929050565b600060208284031215611a8e57611a8d61175e565b5b6000611a9c84828501611789565b91505092915050565b600073ffffffffffffffffffffffffffffffffffffffff82169050919050565b6000611ad082611aa5565b9050919050565b611ae081611ac5565b82525050565b6000602082019050611afb6000830184611ad7565b92915050565b7f4e487b7100000000000000000000000000000000000000000000000000000000600052602160045260246000fd5b60078110611b4157611b40611b01565b5b50565b6000819050611b5282611b30565b919050565b6000611b6282611b44565b9050919050565b611b7281611b57565b82525050565b6000606082019050611b8d6000830186611a0e565b611b9a6020830185611a0e565b611ba76040830184611b69565b949350505050565b60008060408385031215611bc657611bc561175e565b5b6000611bd485828601611789565b925050602083013567ffffffffffffffff811115611bf557611bf4611763565b5b611c01858286016118b6565b9150509250929050565b600081519050919050565b600082825260208201905092915050565b60005b83811015611c45578082015181840152602081019050611c2a565b83811115611c54576000848401525b50505050565b6000611c6582611c0b565b611c6f8185611c16565b9350611c7f818560208601611c27565b611c88816117a8565b840191505092915050565b600061012082019050611ca9600083018c611a0e565b8181036020830152611cbb818b611c5a565b90508181036040830152611ccf818a611c5a565b9050611cde6060830189611a0e565b611ceb6080830188611a0e565b611cf860a0830187611ad7565b611d0560c0830186611a0e565b611d1260e0830185611b69565b818103610100830152611d258184611c5a565b90509a9950505050505050505050565b7f496e76616c69642076656869636c652049440000000000000000000000000000600082015250565b6000611d6b601283611c16565b9150611d7682611d35565b602082019050919050565b60006020820190508181036000830152611d9a81611d5e565b9050919050565b7f56656869636c6520686173206e6f7420636f6d706c65746564206120666f727760008201527f6172642064656c69766572790000000000000000000000000000000000000000602082015250565b6000611dfd602c83611c16565b9150611e0882611da1565b604082019050919050565b60006020820190508181036000830152611e2c81611df0565b9050919050565b7f4d696e696d756d20657363726f7720616d6f756e742072657175697265640000600082015250565b6000611e69601e83611c16565b9150611e7482611e33565b602082019050919050565b60006020820190508181036000830152611e9881611e5c565b9050919050565b7f4e487b7100000000000000000000000000000000000000000000000000000000600052601160045260246000fd5b6000611ed982611768565b91507fffffffffffffffffffffffffffffffffffffffffffffffffffffffffffffffff8203611f0b57611f0a611e9f565b5b600182019050919050565b7f4f6e6c79206f776e65722063616e20706572666f726d2074686973206163746960008201527f6f6e000000000000000000000000000000000000000000000000000000000000602082015250565b6000611f72602283611c16565b9150611f7d82611f16565b604082019050919050565b60006020820190508181036000830152611fa181611f65565b9050919050565b7f496e76616c696420747269702049440000000000000000000000000000000000600082015250565b6000611fde600f83611c16565b9150611fe982611fa8565b602082019050919050565b6000602082019050818103600083015261200d81611fd1565b9050919050565b7f54726970206973206e6f742070656e64696e672072657665727365206173736960008201527f676e6d656e740000000000000000000000000000000000000000000000000000602082015250565b6000612070602683611c16565b915061207b82612014565b604082019050919050565b6000602082019050818103600083015261209f81612063565b9050919050565b7f56656869636c65206973206e6f7420656c696769626c6520666f72207265766560008201527f7273652064656c69766572790000000000000000000000000000000000000000602082015250565b6000612102602c83611c16565b915061210d826120a6565b604082019050919050565b60006020820190508181036000830152612131816120f5565b9050919050565b7f54726970206973206e6f7420696e207472616e73697400000000000000000000600082015250565b600061216e601683611c16565b915061217982612138565b602082019050919050565b6000602082019050818103600083015261219d81612161565b9050919050565b7f54726970206973206e6f742070656e64696e672061737369676e6d656e740000600082015250565b60006121da601e83611c16565b91506121e5826121a4565b602082019050919050565b60006020820190508181036000830152612209816121cd565b9050919050565b7f56656869636c65206973206e6f7420617661696c61626c650000000000000000600082015250565b6000612246601883611c16565b915061225182612210565b602082019050919050565b6000602082019050818103600083015261227581612239565b9050919050565b7f54726970206973206e6f7420696e207472616e73697420666f7220726576657260008201527f73652064656c6976657279000000000000000000000000000000000000000000602082015250565b60006122d8602b83611c16565b91506122e38261227c565b604082019050919050565b60006020820190508181036000830152612307816122cb565b9050919050565b7f4e487b7100000000000000000000000000000000000000000000000000000000600052602260045260246000fd5b6000600282049050600182168061235557607f821691505b6020821081036123685761236761230e565b5b5091905056fea2646970667358221220d1037316d7a75f560766e26bc98207359a1ccb54e60c84da60532d2784d226df64736f6c634300080d0033",
  "immutableReferences": {},
  "source": "// SPDX-License-Identifier: MIT\r\npragma solidity ^0.8.13;\r\n\r\ncontract FreightManager {\r\n    address public owner;\r\n\r\n    enum DeliveryState { Available, AssignedForward, InTransitForward, DeliveredForward, AssignedReverse, InTransitReverse, DeliveredReverse }\r\n\r\n    struct Vehicle {\r\n        uint id;\r\n        uint capacity;\r\n        DeliveryState state;\r\n        uint[] tripHistory;\r\n    }\r\n\r\n    struct Trip {\r\n        uint id;\r\n        string origin;\r\n        string destination;\r\n        uint cargoWeight;\r\n        uint vehicleId;\r\n        address user;\r\n        uint escrowAmount;\r\n        DeliveryState deliveryState;\r\n        string ipfsHash;\r\n    }\r\n\r\n    mapping(uint => Vehicle) public vehicles;\r\n    mapping(uint => Trip) public trips;\r\n    uint public nextVehicleId = 1;\r\n    uint public nextTripId = 1;\r\n\r\n    constructor() {\r\n        owner = msg.sender;\r\n    }\r\n\r\n    modifier onlyOwner() {\r\n        require(msg.sender == owner, \"Only owner can perform this action\");\r\n        _;\r\n    }\r\n\r\n    function registerVehicle(uint _capacity) public onlyOwner {\r\n        vehicles[nextVehicleId] = Vehicle({\r\n            id: nextVehicleId,\r\n            capacity: _capacity,\r\n            state: DeliveryState.Available,\r\n            tripHistory: new uint[](0)\r\n        });\r\n        nextVehicleId++;\r\n    }\r\n\r\n    function scheduleForwardTrip(string memory _origin, string memory _destination, uint _cargoWeight) public payable {\r\n        // Basic check for minimum escrow amount (can be refined)\r\n        require(msg.value > 0, \"Minimum escrow amount required\");\r\n\r\n        trips[nextTripId] = Trip({\r\n            id: nextTripId,\r\n            origin: _origin,\r\n            destination: _destination,\r\n            cargoWeight: _cargoWeight,\r\n            vehicleId: 0, // Vehicle not assigned yet\r\n            user: msg.sender,\r\n            escrowAmount: msg.value,\r\n            deliveryState: DeliveryState.AssignedForward, // Start in Assigned state, waiting for vehicle\r\n            ipfsHash: \"\" // IPFS hash will be added later\r\n        });\r\n        nextTripId++;\r\n    }\r\n\r\n    function assignVehicleToForwardTrip(uint _tripId, uint _vehicleId) public onlyOwner {\r\n        require(_tripId > 0 && _tripId < nextTripId, \"Invalid trip ID\");\r\n        require(_vehicleId > 0 && _vehicleId < nextVehicleId, \"Invalid vehicle ID\");\r\n        require(trips[_tripId].deliveryState == DeliveryState.AssignedForward, \"Trip is not pending assignment\");\r\n        require(vehicles[_vehicleId].state == DeliveryState.Available, \"Vehicle is not available\");\r\n\r\n        trips[_tripId].vehicleId = _vehicleId;\r\n        trips[_tripId].deliveryState = DeliveryState.InTransitForward; // Assuming assignment means it's now in transit\r\n\r\n        vehicles[_vehicleId].state = DeliveryState.AssignedForward; // Update vehicle state after assignment\r\n        vehicles[_vehicleId].tripHistory.push(_tripId);\r\n    }\r\n\r\n    function markForwardTripDelivered(uint _tripId) public onlyOwner {\r\n        require(_tripId > 0 && _tripId < nextTripId, \"Invalid trip ID\");\r\n        require(trips[_tripId].deliveryState == DeliveryState.InTransitForward, \"Trip is not in transit\");\r\n\r\n        trips[_tripId].deliveryState = DeliveryState.DeliveredForward;\r\n        vehicles[trips[_tripId].vehicleId].state = DeliveryState.DeliveredForward; // Vehicle is now eligible for reverse\r\n    }\r\n\r\n    function scheduleReverseTrip(uint _vehicleId, string memory _origin, string memory _destination, uint _cargoWeight) public payable {\r\n        require(_vehicleId > 0 && _vehicleId < nextVehicleId, \"Invalid vehicle ID\");\r\n        require(vehicles[_vehicleId].state == DeliveryState.DeliveredForward, \"Vehicle has not completed a forward delivery\");\r\n        require(msg.value > 0, \"Minimum escrow amount required\");\r\n\r\n        trips[nextTripId] = Trip({\r\n            id: nextTripId,\r\n            origin: _origin,\r\n            destination: _destination,\r\n            cargoWeight: _cargoWeight,\r\n            vehicleId: _vehicleId,\r\n            user: msg.sender,\r\n            escrowAmount: msg.value,\r\n            deliveryState: DeliveryState.AssignedReverse, // Waiting for admin assignment to start transit\r\n            ipfsHash: \"\" // IPFS hash will be added later\r\n        });\r\n        vehicles[_vehicleId].tripHistory.push(nextTripId); // Add reverse trip to vehicle history\r\n        nextTripId++;\r\n    }\r\n\r\n    function assignVehicleToReverseTrip(uint _tripId, uint _vehicleId) public onlyOwner {\r\n        require(_tripId > 0 && _tripId < nextTripId, \"Invalid trip ID\");\r\n        require(_vehicleId > 0 && _vehicleId < nextVehicleId, \"Invalid vehicle ID\");\r\n        require(trips[_tripId].deliveryState == DeliveryState.AssignedReverse, \"Trip is not pending reverse assignment\");\r\n        require(vehicles[_vehicleId].state == DeliveryState.DeliveredForward, \"Vehicle is not eligible for reverse delivery\");\r\n\r\n        trips[_tripId].vehicleId = _vehicleId;\r\n        trips[_tripId].deliveryState = DeliveryState.InTransitReverse;\r\n\r\n        vehicles[_vehicleId].state = DeliveryState.InTransitReverse; // Update vehicle state to in transit for reverse\r\n    }\r\n\r\n    function markReverseTripDelivered(uint _tripId, string memory _ipfsHash) public onlyOwner {\r\n        require(_tripId > 0 && _tripId < nextTripId, \"Invalid trip ID\");\r\n        require(trips[_tripId].deliveryState == DeliveryState.InTransitReverse, \"Trip is not in transit for reverse delivery\");\r\n\r\n        trips[_tripId].deliveryState = DeliveryState.DeliveredReverse;\r\n        trips[_tripId].ipfsHash = _ipfsHash; // Store the IPFS hash\r\n\r\n        uint vehicleId = trips[_tripId].vehicleId;\r\n        vehicles[vehicleId].state = DeliveryState.Available; // Vehicle is now available again\r\n\r\n        // Release escrow to the vehicle operator/owner (assuming contract owner for now)\r\n        // In a real application, Vehicle struct might need an operator address\r\n        payable(owner).transfer(trips[_tripId].escrowAmount);\r\n    }\r\n\r\n    // Smart contract logic will go here\r\n} ",
  "sourcePath": "D:\\Projects\\web3\\contracts\\FreightManager.sol",
  "compiler": {
    "name": "solc",
    "version": "0.8.13+commit.abaa5c0e.Emscripten.clang"
  },
  "schemaVersion": "3.4.16",
  "updatedAt": "2025-05-24T09:47:50.225Z",
  "networkType": "ethereum",
  "devdoc": {
    "kind": "dev",
    "methods": {},
    "version": 1
  },
  "userdoc": {
    "kind": "user",
    "methods": {},
    "version": 1
  }
}